:100000000C9486010C94AE010C94AE010C94AE01DC
:100010000C94AE010C94AE010C94AE010C94AE01A4
:100020000C94AE010C94AE010C948B050C94FD0560
:100030000C94AE010C94AE010C94AE010C94AE0184
:100040000C94AE010C94AE010C94AE010C94AE0174
:100050000C94AE010C94AE010C94AE010C94B20B56
:100060000C94AE010C9477080C9451080C94AE01DA
:100070000C94AE010C94AE010C94AE010C94AE0144
:100080000C94AE010C94AE010C94AE010C94AE0134
:100090000C944E090C94AE010C94AE010C94AE017C
:1000A0000C94AE010C94AE010C94AE01230B260B04
:1000B000150B190B1F0B470B470B470B2A0B2E0B6E
:1000C000320B380B3C0B470B420B4E414E494E490D
:1000D0005459494E46CDCCCC3D0AD7233C17B7D115
:1000E0003877CC2B329595E6241FB14F0A000020BB
:1000F000410000C84200401C4620BCBE4CCA1B0E3A
:100100005AAEC59D7400407A10F35A00A0724E1882
:10011000090010A5D4E80000E87648170000E40BB9
:1001200054020000CA9A3B000000E1F5050000807F
:10013000969800000040420F000000A086010000D9
:1001400000102700000000E8030000000064000029
:100150000000000A00000000000100000000002C68
:1001600076D888DC674F0823DFC1DFAE59E1B1B72D
:1001700096E5E3E453C63AE651997696E8E6C284FA
:1001800026EB898C9B62ED407C6FFCEFBC9C9F4012
:10019000F2BAA56FA5F490055A2AF75C936B6CF937
:1001A000676DC11BFCE0E40D47FEF520E6B500D00D
:1001B000ED902E0300943577050080841E08000022
:1001C000204E0A000000C80C333333330F986E12F0
:1001D000831141EF8D2114893BE65516CFFEE6DBF6
:1001E00018D1844B381BF77C1D901DA4BBE4242040
:1001F0003284725E228100C9F124ECA1E53D27081A
:100200000B000202020100090400000102020000CA
:10021000052400100105240101010424020605241F
:100220000600010705810310004009040100020ACD
:10023000000000070502024000000705830240009D
:10024000000403090412010002EF020140412336B9
:100250008000010102030141726475696E6F204CD8
:100260004C430041726475696E6F204C656F6E611E
:1002700072646F00070605040100080A0B0C0D09E3
:1002800000000000240027002A002D00300000009C
:100290000000250028002B002E0031000000000087
:1002A0002300260029002C002F000404040404036A
:1002B0000405020202020403020202020606060606
:1002C000060604040202020404040802011040802D
:1002D000401020408040800802040180402010022D
:1002E00001108010204040200000000200090F0093
:1002F00000030401000C00000000000000000000EA
:100300000000000000000000EF162F1311241FBE94
:10031000CFEFDAE0DEBFCDBF25E0A8E7B2E001C055
:100320001D92AA35B207E1F712E0A0E0B1E0E0E7E4
:10033000FFE302C005900D92A837B107D9F711E08D
:10034000C5E8D1E004C02197FE010E94591EC438BF
:10035000D107C9F70E9430130C94AB1F0C94000016
:1003600040912703509128032091250330912603C3
:1003700042175307B4F49091E8009570E1F390911F
:10038000E80092FD19C08093F100809127039091BD
:10039000280301968F739927892B19F48EEF809388
:1003A000E8008091270390912803019690932803F9
:1003B0008093270381E0089580E00895CF92DF9233
:1003C000EF92FF920F931F93CF93DF931F92CDB7BE
:1003D000DEB7182F062FE42E862F880F8E5F9983A5
:1003E0000E94B00183E00E94B001F12EC12E9981DC
:1003F000D92E8C2D8F19801798F4F601E7FE02C0D4
:10040000849101C080810E94B001182F80E00E9479
:10041000B0018123FFEFCF1ADF0A8111EACF01C0BB
:1004200081E00F90DF91CF911F910F91FF90EF909E
:10043000DF90CF900895DF92EF92FF920F931F937A
:10044000CF93DF93D82E8A017B01E40EF51EEB01DA
:10045000CE15DF0571F0D7FE03C0FE01849101C007
:1004600088810E94B00121968111F2CF8FEF9FEF1A
:1004700001C0C801DF91CF911F910F91FF90EF90C4
:10048000DF900895615030F02091F100FC0120834D
:100490000196F8CF289884E6809373030895CF924D
:1004A000DF92EF92FF920F931F93CF93DF936C0134
:1004B0007A018B01C0E0D0E0CE15DF0589F0D801CC
:1004C0006D918D01D601ED91FC910190F081E02DAF
:1004D000C6010995892B11F47E0102C02196ECCF4B
:1004E000C701DF91CF911F910F91FF90EF90DF90A7
:1004F000CF900895FC01538D448D252F30E0842F3B
:1005000090E0821B930B541710F0CF96089501973B
:100510000895FC01918D828D981761F0828DDF0125
:10052000A80FB11D5D968C91928D9F5F9F73928FE6
:1005300090E008958FEF9FEF0895FC01918D828DDB
:10054000981731F0828DE80FF11D858D90E00895A8
:100550008FEF9FEF0895FC01918D228D892F90E000
:10056000805C9F4F821B91098F73992708958DEDB1
:1005700093E00E94AB0221E0892B09F420E0822F56
:100580000895FC01848DDF01A80FB11DA35ABF4F50
:100590002C91848D90E001968F739927848FA68982
:1005A000B7892C93A089B1898C9182748C93938D97
:1005B000848D981306C00288F389E02D80818F7D99
:1005C00080830895EF92FF920F931F93CF93DF9351
:1005D000EC0181E0888F9B8D8C8D981305C0E88994
:1005E000F989808185FD26C0F62E0B8D10E00F5F06
:1005F0001F4F0F731127E02E8C8DE8120CC00FB621
:1006000007FCFACFE889F989808185FFF5CFCE0113
:100610000E94C102F1CF8B8DFE01E80FF11DE35A5C
:10062000FF4FF0829FB7F8940B8FEA89FB89808196
:10063000806209C09FB7F894EE89FF896083E889DA
:10064000F9898081827480839FBF81E090E0DF918F
:10065000CF911F910F91FF90EF900895CF93DF936B
:10066000EC01888D8823C9F0EA89FB89808185FDAA
:1006700005C0A889B9898C9186FD0FC00FB607FC0B
:10068000F5CF808185FFF2CFA889B9898C9185FF4C
:10069000EDCFCE010E94C102E7CFDF91CF91089547
:1006A00080E090E0892B29F00E94B70281110C9420
:1006B00000000895CF93DF931F92CDB7DEB7698313
:1006C000DC01ED91FC910280F381E02D41E050E0EE
:1006D000BE016F5F7F4F09950F90DF91CF91089515
:1006E00083E08093E9008091F200882319F08AE387
:1006F0008093E8000895FC018485958597FD0BC0E3
:100700009FB7F89482E08093E9008091F2009FBF48
:1007100090E0019608959FB7F89482E08093E900F5
:100720008091F2009FBF90E0089585ED8093BC001A
:100730008091BC0084FDFCCF10923303089540915A
:10074000BC02262F30E0240F311D21323105DCF4AC
:10075000209133032430C9F4FC0180E090E0861737
:1007600058F43091BC022191DC01A456BD4FA30F77
:10077000B11D2C930196F3CF8091BC02680F60935A
:10078000BC0280E0089581E0089582E00895E09140
:100790009A02F0919B02309729F010923503109243
:1007A000340309940895CF93DF93AC01E09198024C
:1007B000F09199023097F1F09091370380913603D0
:1007C0009817C0F090E0292F30E02617370754F42F
:1007D000D901A858BD4FEA01C20FD31F88818C935D
:1007E0009F5FF1CF1092370360933603CB01DF9107
:1007F000CF910994DF91CF9108950895E091370347
:1008000080913603E81730F4F0E0E858FD4F80811E
:1008100090E008958FEF9FEF0895909137038091B6
:100820003603981750F4E92FF0E0E858FD4F208187
:1008300030E09F5F9093370302C02FEF3FEFC90175
:1008400008958091360390E020913703821B91092F
:100850000895CF92DF92EF92FF920F931F93CF9361
:10086000DF937C01262F972F8A0180910303882331
:1008700091F0C62FD72F6E01C40ED51ECC15DD0505
:1008800071F06991D701ED91FC910190F081E02D1B
:10089000C7010995F3CF642F822F0E949F03C801DF
:1008A000DF91CF911F910F91FF90EF90DF90CF904C
:1008B0000895CF93DF931F92CDB7DEB76983209160
:1008C00003032223D1F020913403203240F021E0B1
:1008D00030E0FC013383228380E090E015C08091FA
:1008E0003503E82FF0E0EC5FFC4F998190838F5F38
:1008F000809335038093340305C061E0CE010196F7
:100900000E949F0381E090E00F90DF91CF910895C6
:10091000089580E090E008950F931F93CF93DF93A5
:100920001F92CDB7DEB782E0898342E450E06FEFDB
:1009300071E080E80E941B020E94AE12DC01129658
:100940000D911C9113970115110569F0D801ED91D6
:10095000FC910280F381E02DBE016F5F7F4FC801E3
:10096000099597FF07C089810F90DF91CF911F9163
:100970000F910895F80100851185E5CF8F929F9220
:10098000AF92BF92CF92DF92EF92FF920F931F939D
:10099000CF93DF935C016B017A0180910B01882377
:1009A00009F45BC080917403882309F456C08091D8
:1009B0002B0380FF05C08091E00082608093E000FF
:1009C000E70110E00AEF83E0882E9AE3992E209742
:1009D000D9F10E949D1281110AC0015009F43DC055
:1009E00061E070E080E090E00E94780BF0CF282F6B
:1009F00030E0C217D3070CF48C2F4FB7F8948092D5
:100A0000E9009091E80095FF1DC0282F30E0C21B3F
:100A1000D30BF601982F915020F081918093F10033
:100A2000FACFC20ED31E112319F09092E80009C02C
:100A30008091E80085FD06C09092E80011E02097C3
:100A400009F010E04FBFC3CF1111C3CF5D9884E60A
:100A500080932A031E141F0444F081E090E0F50106
:100A60009383828380E090E001C0C701DF91CF9142
:100A70001F910F91FF90EF90DF90CF90BF90AF90BC
:100A80009F908F9008950E949D1290E008950F937B
:100A90001F93CF93DF931F92CDB7DEB78C01FC017C
:100AA0008485958597FF0EC0CE0101960E94731232
:100AB000019719F4298130E002C02FEF3FEFF801D0
:100AC00035872487F801848595850F90DF91CF9134
:100AD0001F910F910895CF93DF931F92CDB7DEB78B
:100AE000FC018485958597FD05C02FEF3FEF358785
:100AF00024870BC0CE0101960E947312019719F44E
:100B0000898190E002C08FEF9FEF0F90DF91CF912E
:100B100008950C94F41E1F920F920FB60F92112499
:100B20008F939F938091E1009091E100937F909348
:100B3000E10083FF0FC01092E90091E09093EB0079
:100B40001092EC0092E39093ED001092740398E001
:100B50009093F00082FF20C093E09093E900909181
:100B6000F200992319F09AE39093E80090912A03F8
:100B7000992339F090912A03915090932A03992355
:100B800089F190917303992339F0909173039150F7
:100B900090937303992341F184FF10C08091E20088
:100BA0008E7E81608093E2008091E1008F7E809351
:100BB000E10080912B038E7E806111C080FF16C002
:100BC0008091E2008E7E80618093E2008091E1005E
:100BD0008E7E8093E10080912B038E7E81608093D6
:100BE0002B0304C05D9ACDCF289AD6CF9F918F91C9
:100BF0000F900FBE0F901F9018951F920F920FB677
:100C00000F921124CF92DF92EF92FF920F931F93D6
:100C10002F933F934F935F936F937F938F939F9304
:100C2000AF93BF93EF93FF93CF93DF93CDB7DEB72F
:100C30006C97DEBFCDBF1092E9008091E80083FF82
:100C4000FAC168E0CE0145960E94420282EF80938D
:100C5000E8008D8987FF05C09091E80090FFFCCFE8
:100C600003C09EEF9093E800982F907609F0C6C0DD
:100C70009E892F89188D91110CC0803829F480919C
:100C80002C038093F10002C01092F1001092F10049
:100C900049C1422F50E0512B913051F4811142C192
:100CA0004130510509F03EC180912C038D7F0BC06E
:100CB000933061F4811136C14130510509F032C1E0
:100CC00080912C03826080932C032CC1953041F4D9
:100CD0008091E80080FFFCCF20682093E30022C1D0
:100CE000963009F05FC0EB8CFC8C1092E9001092FA
:100CF000280310922703123091F5109226031092C8
:100D000025030E948C0499E0BE016F5F7F4FDB01D9
:100D1000E92F1D92EA95E9F799831A8391E09E8362
:100D200090EA98879AEF99872091270330912803BA
:100D3000275F3F4F3C832B838D831092E9001092F5
:100D4000280310922703F0922603E092250349E03E
:100D500050E080E00E941B020E948C04E3C0F092ED
:100D60002603E09225030E94AE12DC011296ED905C
:100D7000FC901397E114F10409F4C1C0D701ED917F
:100D8000FC910480F581E02DBE016B5E7F4FC701B1
:100D90000995009719F00CF0C5C0C8C0F701E084B0
:100DA000F184E8CF973009F4C1C0983021F481E094
:100DB0008093F100B7C0993009F0B4C0837009F096
:100DC000B5C0E3E1F1E081E021E036E390819923D1
:100DD00061F08093E9002093EB0091919093EC00F7
:100DE0003093ED008F5F873089F78EE78093EA00BC
:100DF0001092EA008F898093740394C08B8D9C8D30
:100E00001092E90010922803109227039093260372
:100E100080932503898D811159C08E899D89913ACE
:100E200059F4813209F082C047E050E064E071E09B
:100E300080E00E941B0276C0913209F077C08332B5
:100E400089F4888D90E0982F88272F89822BA0E045
:100E5000B0E08093000190930101A0930201B09350
:100E6000030160C0803269F48091E80082FFFCCF0A
:100E700067E084E091E00E9442028BEF8093E800FB
:100E800051C0823209F04EC08F8980930B01EEEF82
:100E9000FFE7859194918B3F9C4D19F4EEEFFAE0BA
:100EA00002C0E0E0F8E08091040190910501A0917A
:100EB0000601B0910701803B9440A105B10509F0FE
:100EC00079C080910B0180FF95C074C00E94AE1262
:100ED000FC01028113810115110541F1D801ED9149
:100EE000FC910190F081E02DBE016B5E7F4FC80147
:100EF0000995811117C0F80100851185ECCF1130DB
:100F000009F44EC0133091F48F89882309F445C049
:100F1000823081F440E860E183E692E00E94DE01E5
:100F2000882321F08EEF8093E80085C081E28093D2
:100F3000EB0081C0813029F440E86BE087E592E066
:100F4000EDCF833099F70E94AE12DC011296ED903E
:100F5000FC9013978E010F5F1F4F6801E114F1049D
:100F600079F0D701ED91FC910680F781E02DB80171
:100F7000C7010995080F111DF701E084F184EECF38
:100F8000D8011C92F60101900020E9F73197BF01CA
:100F90006C197D0940E0C601C1CF61E472E002C076
:100FA00065E472E06115710509F2FB01449150E0BE
:100FB00080E83FCF808191818737974709F0B2CF92
:100FC000A8958091600088618093600080912903DA
:100FD00080936000EE3FBAE0FB0739F08091FE0A93
:100FE0009091FF0A918380839DCF1092FF0A109207
:100FF000FE0A98CFEE3F8AE0F80751F08081918198
:101000008737A7E79A0721F09093FF0A8093FE0A9B
:1010100087E797E79183808380916000809329031D
:101020009BE088E10FB6F894A895809360000FBE0E
:101030009093600077CF6C960FB6F894DEBF0FBE2A
:10104000CDBFDF91CF91FF91EF91BF91AF919F9174
:101050008F917F916F915F914F913F912F911F9150
:101060000F91FF90EF90DF90CF900F900FBE0F90F9
:101070001F9018956115710579F0FB010190002012
:10108000E9F73197AF01461B570BDC01ED91FC915D
:101090000280F381E02D099480E090E008950C94A3
:1010A0003A081F920F920FB60F9211242F933F937D
:1010B0004F935F936F937F938F939F93AF93BF9360
:1010C000EF93FF938DED93E00E94C102FF91EF91AA
:1010D000BF91AF919F918F917F916F915F914F9150
:1010E0003F912F910F900FBE0F901F9018951F9258
:1010F0000F920FB60F9211242F938F939F93EF931C
:10110000FF93E091ED03F091EE038081E091F30312
:10111000F091F40382FD12C090818091F6038F5FFD
:101120008F732091F703821751F0E091F603F0E0FE
:10113000E352FC4F958F8093F60301C08081FF91AD
:10114000EF919F918F912F910F900FBE0F901F9055
:101150001895CF93FC01C48121E020930303C09331
:10116000240310923503109234038385682B81ED9C
:1011700093E00E94590480913403813208F046C004
:10118000909133039111FCCF92E09093330391E05F
:10119000909332039FEF9093020310920103809388
:1011A0000003A4E0B3E020EE32E0F9019E2F921B91
:1011B000981718F49D919193F9CF1092DF028091C6
:1011C000DF02CC0FC82BC093DF0280913103813046
:1011D00061F4109231038091DF028093BB00809113
:1011E000BC0083FDF8CF85EC01C085EE8093BC0088
:1011F000809133038230E1F3809102038F3F31F01D
:1012000080910203803211F0809102031092350325
:101210001092340310920303CF9108950F931F93FC
:10122000CF938C01C62F0E94A9086C2F6460C8015F
:101230000E94A9086C2F6B7FC8010E94A90883EC4B
:1012400090E00197F1F7CF911F910F910895FF92D0
:101250000F931F93CF93DF931F92CDB7DEB78C010F
:10126000F62E962F907F692F642BC80149830E9428
:101270000E0980E1F89EB00111244981642BC80158
:101280000F90DF91CF911F910F91FF900C940E0959
:1012900041E00E94270981E090E008951F920F929B
:1012A0000FB60F9211242F933F934F935F936F9339
:1012B0007F938F939F93AF93BF93EF93FF9380910F
:1012C000B900887F803609F49CC068F5883209F43B
:1012D0005BC090F4803109F454C038F4882309F4D9
:1012E000F6C0883009F44DC0F6C0883109F44CC00E
:1012F000803209F45DC0EFC0803409F468C048F45E
:10130000803309F455C0883309F0E5C080930203A7
:10131000D8C0803509F44FC0883509F45DC08834E1
:1013200009F0D9C0D6C0883909F4C7C0A8F48837F5
:1013300009F467C038F4883609F463C0803709F4CB
:1013400060C0C9C0883809F4B8C0803909F45FC0EA
:10135000803809F0C0C05BC0803B09F486C038F417
:10136000803A09F466C0883A09F47FC0B4C0803C72
:1013700009F4A7C0883C09F4A4C0883B09F48AC0DA
:10138000AAC08091DF0210C09091010380910003F8
:10139000981770F5E091010381E08E0F80930103AF
:1013A000F0E0E052FD4F80818093BB0085EC86C069
:1013B000809302038EC0E091010381E08E0F809341
:1013C00001038091BB00F0E0E052FD4F80839091DB
:1013D0000103809100036EC0E091010381E08E0F54
:1013E000809301038091BB00F0E0E052FD4F8083C9
:1013F0008091320381116DC081E08093310384EAD2
:1014000061C083E0809333031092DE02CFCF8091DE
:10141000DE02803208F051C0E091DE0281E08E0FE2
:101420008093DE028091BB00F0E0E254FD4F8083A8
:10143000BDCF85EC8093BC00109233038091DE0217
:10144000803230F4E091DE02F0E0E254FD4F108291
:101450006091DE0270E0E0912D03F0912E038EEB9F
:1014600092E009951092DE0236C084E08093330347
:101470001092BD021092BC02E0912F03F091300354
:1014800009958091BC02811105C081E08093BC0266
:1014900010929C02E091BD0281E08E0F8093BD020C
:1014A000F0E0E456FD4F80818093BB009091BD0237
:1014B0008091BC02981708F479CF85E88093BC002E
:1014C0000AC085EC8093BC001092330304C01092D4
:1014D00002030E949503FF91EF91BF91AF919F91FD
:1014E0008F917F916F915F914F913F912F910F90CD
:1014F0000FBE0F901F9018950895CF93DF9390E043
:10150000FC01E753FD4F2491FC01E655FD4F84910A
:10151000882361F190E0880F991FFC01E058FD4F8E
:10152000C591D491FC01E257FD4FA591B491611191
:1015300009C09FB7F8948881209582238883EC9115
:101540002E230BC0623061F49FB7F8943881822F4C
:10155000809583238883EC912E2B2C939FBF06C00C
:101560008FB7F894E8812E2B28838FBFDF91CF911E
:101570000895823108F08251E82FF0E0EC58FD4FD9
:10158000E49180917B00E3FB222720F930E095E095
:10159000220F331F9A95E1F78F7D282B20937B0034
:1015A000E770E064E0937C0080917A00806480932F
:1015B0007A0080917A0086FDFCCF8091780020919E
:1015C000790090E0922B08953FB7F89480916F03D3
:1015D00090917003A0917103B091720326B5A89BFE
:1015E00005C02F3F19F00196A11DB11D3FBFBA2FB5
:1015F000A92F982F8827820F911DA11DB11DBC0115
:10160000CD0142E0660F771F881F991F4A95D1F7D9
:1016100008950E948C1F90E0FC013197EF30F10596
:10162000B0F5EA5AFF4F0C94591E809180008F77D5
:1016300003C0809180008F7D809380000895809109
:101640008000877FF9CF84B58F7702C084B58F7D06
:1016500084BD0895809190008F7707C0809190009D
:101660008F7D03C080919000877F809390000895C4
:101670008091C0008F7703C08091C0008F7D8093E0
:10168000C00008958091C200877F8093C2000895B2
:101690001F93CF93DF93282F30E0F901E851FD4FDE
:1016A0008491F901E753FD4FD491F901E655FD4FBF
:1016B000C491CC23C9F0162F81110E940B0BEC2F83
:1016C000F0E0EE0FFF1FE257FD4FA591B4918FB7E9
:1016D000F894111105C09C91ED2FE095E92302C00B
:1016E000EC91ED2BEC938FBFDF91CF911F9108957B
:1016F0008F929F92AF92BF92CF92DF92EF92FF9222
:101700006B017C010E94E40A4B015C01C114D1040D
:10171000E104F104F1F00E94E40ADC01CB01881934
:101720009909AA09BB09883E9340A105B10570F348
:1017300021E0C21AD108E108F10888EE880E83E0A2
:10174000981EA11CB11CC114D104E104F10419F7C5
:10175000DDCFFF90EF90DF90CF90BF90AF909F9044
:101760008F9008951F920F920FB60F9211242F930E
:101770003F938F939F93AF93BF9380916B0390910F
:101780006C03A0916D03B0916E0330916A0323E066
:10179000230F2D3720F40196A11DB11D05C026E8A9
:1017A000230F0296A11DB11D20936A0380936B0342
:1017B00090936C03A0936D03B0936E0380916F03BD
:1017C00090917003A0917103B09172030196A11DD5
:1017D000B11D80936F0390937003A0937103B09336
:1017E0007203BF91AF919F918F913F912F910F9075
:1017F0000FBE0F901F9018952F923F924F925F92BD
:101800006F927F928F929F92AF92BF92CF92DF9210
:10181000EF92FF920F931F93CF93DF93CDB7DEB775
:10182000C05FD1090FB6F894DEBF0FBECDBF1092D6
:10183000D8041092D9040E942413892B61F080915E
:101840007C0490917D04DC01ED91FC910284F38590
:10185000E02D0995F0CFA12CB12C6E01B1E6CB0E95
:10186000D11C2E01E9ED4E0E511C3E01F9EE6F0E1A
:10187000711C8E010F571F4F7E0121E9E20EF11CF2
:101880008091D804883009F4F4C10E942413892B74
:10189000B9F380917C0490917D04DC01ED91FC9181
:1018A0000284F385E02D0995982E8091D804863026
:1018B000B9F4FE0131961F011192EC15FD05E1F717
:1018C0006DE572E0C1010E94911FF10101900020BD
:1018D000E9F731975F01A218B30887E08093D80435
:1018E0008091D9048630B9F4FE0131961F0111921E
:1018F000EC15FD05E1F764E672E0C1010E94911F5D
:10190000F10101900020E9F731975F01A218B308B7
:1019100087E08093D9048091D804873009F0A7C06C
:10192000CE010196BAE0FC01EA0DFB1D9B1629F0E1
:101930009082F50131965F019AC01082298124328C
:1019400049F4FE0132969F01281B390B41914C321C
:10195000D1F702C020E030E0FC01E20FF31F40812C
:101960004C3299F42F5F3F4FFC01E20FF31F40818F
:101970002F5F3F4F4E32C1F7FC01E20FF31F408152
:101980004C3219F02F5F3F4FF7CFFC01E20FF31FEE
:1019900040814C3241F42F5F3F4FFC01E20FF31FB7
:1019A00040814C32C1F7A9014E5F5F4FFC01E40F4B
:1019B000F51F60816C3259F44F5F5F4FFC01E40FFB
:1019C000F51F20812C3219F04F5F5F4FF7CF9A013E
:1019D0002C5F3F4FFC01E20FF31F60816C32A1F4DA
:1019E0002F5F3F4FF201AF0144195509DC01A20FEF
:1019F000B31F6C916C3221F02F5F3F4F6193F3CF97
:101A0000F201E40FF51F1082FC01E20FF31F408189
:101A10004C3241F42F5F3F4FFC01E20FF31F408136
:101A20004C32C1F7AC01420F531FDA012C912C321A
:101A3000B1F4DE01AF51BF4F20E030E0FA01E20F18
:101A4000F31F61816C3221F02F5F3F4F6D93F6CF12
:101A5000E1EEF0E0EC0FFD1FE20FF31F1082FC013E
:101A60001192EC15FD05E1F788E08093D804809190
:101A7000D904873009F0EEC0AE014F5F5F4FBAE086
:101A8000FA01EA0DFB1D9B1629F09082F5013196B3
:101A90005F01E0C010828981843249F4FE013296F0
:101AA0009F01241B350B81918C32D1F702C020E0BD
:101AB00030E0FA01E20FF31F80818C3201F52F5FD5
:101AC0003F4FCE018F549F4FFC01BF01681B790B24
:101AD000DA01A20FB31FAC912F5F3F4FAE3211F06E
:101AE000A193F3CFFC01E60FF71F1082FA01E20F7A
:101AF000F31F80818C3219F02F5F3F4FF7CFFA012F
:101B0000E20FF31F80818C3231F4FE01E20FF31FEC
:101B100082802E5F3F4FFA01E20FF31F80818C32EB
:101B200021F52F5F3F4FF701CF018E199F09DA0191
:101B3000A20FB31F6C912F5F3F4F6C3211F0619376
:101B4000F3CFF701E80FF91FCF018E199F09DA01D2
:101B5000A20FB31F6C916C3221F02F5F3F4F619346
:101B6000F3CFF701E80FF91F1082FA01E20FF31F1C
:101B700080818C3221F52F5F3F4FF801CF01801B10
:101B8000910BDA01A20FB31F6C912F5F3F4F6C32A4
:101B900011F06193F3CFF801E80FF91FCF01801B1B
:101BA000910BDA01A20FB31F6C916C3221F02F5F01
:101BB0003F4F6193F3CFF801E80FF91F1082FA014C
:101BC000E20FF31F80818C32A1F42F5F3F4FF301AE
:101BD000CF0186199709DA01A20FB31F6C916C32FD
:101BE00021F02F5F3F4F6193F3CFF301E80FF91F0F
:101BF0001082FA01E20FF31F80818C3241F42F5FD3
:101C00003F4FFA01E20FF31F80818C32C1F7240F9E
:101C1000351FD9018C918C32A9F4DE01AF55BF4F2D
:101C200080E090E0F901E80FF91F61816C3219F052
:101C300001966D93F7CFE1EAF0E0EC0FFD1FE80F9E
:101C4000F91F1082FA011192EC15FD05E1F788E009
:101C50008093D9044DE552E068ED74E0892D0E942F
:101C6000EB1244E652E069ED74E0892D0E94EB121C
:101C700007CE8091D904883009F007CEB1E48B16E5
:101C800031F083E080937F0483E090E0B3C2CF54CF
:101C9000DF4F2881C15BD0402093B804CE54DF4F82
:101CA0003881C25BD0403093B9048AE38093BA0490
:101CB000CD54DF4F9881C35BD0409093BB04CC548C
:101CC000DF4F5881C45BD0405093BC048093BD0467
:101CD000CB54DF4F8881C55BD0408093BE04CA548B
:101CE000DF4F4881C65BD0404093BF041092C004D0
:101CF00063ED630F220F2056322F330F330F230F64
:101D0000260F209383045053990F9056292F220FAA
:101D1000220F920F950F909382044053880F8056A4
:101D2000982F990F990F890F840F80938104CF55B5
:101D3000DF4F9881C15AD0409093C804CE55DF4FF1
:101D40003881C25AD0403093C9042EE22093CA048D
:101D5000CD55DF4F8881C35AD0408093CB04CC55FA
:101D6000DF4F4881C45AD0404093CC042093CD0427
:101D700022E32093CE0420E32093CF04CB55DF4F02
:101D80002881C55AD0402093D004CA55DF4F6881BE
:101D9000C65AD0406093D1041092D20450ED530F34
:101DA000990F9056392F330F330F930F950F909350
:101DB00084044053880F8056982F990F990F890FEC
:101DC000840F80938504822F220F990BC0974AE0DD
:101DD000489F9001499F300D1124C901860F911D24
:101DE00067FD9A958056984F909387048093860458
:101DF000CE0187529F4F0E949D1780938004CE0191
:101E000087519F4F0E9499176093880470938904AB
:101E100080938A0490938B04CE018F519F4F0E9430
:101E2000991760938C0470938D0480938E04909323
:101E30008F046E01E1E9CE0ED11CA6014E5F5F4F0B
:101E4000CE018F589F4FDC01BD01681B790BFA0151
:101E50002191AF01222311F02D93F6CFFB01E80F62
:101E6000F91F10820E949917D6010C9111961C91AE
:101E700020E030E048EC52E40E940D1C20E030E00D
:101E800040E752E40E948C1D20E030E048EC52E430
:101E90000E948C1D4B015C01202F002E000C330B87
:101EA000205331094AE0429FC001439F900D112405
:101EB000BC01990F880B990B0E94AE1B9B01AC01D2
:101EC000C501B4010E94201D4B015C01812F012E30
:101ED000000C990BC097BC01990F880B990B0E94BD
:101EE000AE1B9B01AC01C501B4010E94201D609393
:101EF0009004709391048093920490939304F6015C
:101F000001900020E9F732972081233559F4DC0154
:101F1000CB01B0588093900490939104A0939204C5
:101F2000B09393047E01B1E8EB0EF11CA7014D5F65
:101F30005F4FCE018F599F4FDC01BD01681B790BAC
:101F4000FA012191AF01222311F02D93F6CFFB016D
:101F5000E80FF91F10820E949917D7019C901196E3
:101F60007C90119712968C9020E030E048EC52E47F
:101F70000E940D1C20E030E040E752E40E948C1DDE
:101F800020E030E048EC52E40E948C1D1B012C0143
:101F9000892D092C000C990BC09724E6289FB001CD
:101FA000299F700D1124072E000C880B990B0E949D
:101FB000AE1B9B01AC01C201B1010E94201D1B019F
:101FC0002C01872D072C000C990BC0972AE0289F25
:101FD000B001299F700D1124072E000C880B990B5E
:101FE0000E94AE1B9B01AC01C201B1010E94201DE9
:101FF0001B012C01682D082C000C770B6053710914
:10200000072E000C880B990B0E94AE1B9B01AC01A4
:10201000C201B1010E94201D609394047093950445
:102020008093960490939704F70101900020E9F7BC
:1020300032972081273559F4DC01CB01B0588093C9
:10204000940490939504A0939604B09397040093FE
:102050009804109399048AE280939A04F60182818D
:1020600080939B04838180939C0487E280939D04EA
:1020700096012B5F3F4F5E01FDECAF0EB11CD50109
:10208000AD014A195B09F90181919F01882311F083
:102090008D93F6CFFA01EA0DFB1D1082C5010E9457
:1020A000991720E030E040E752E40E940D1C20E048
:1020B00030E048EC52E40E948C1D20E030E44CE11A
:1020C00056E40E948C1D850124E046E00E947917A9
:1020D00086E090E0D5012D915D01222331F001963B
:1020E000FC01E658FB4F258FF5CFDC01A658BB4F0E
:1020F00082E25E968C935E97F60101900020E9F7EC
:10210000329780815F968C935F9790961C92B1E393
:102110009B1205C09092A80481E090E002C080E08C
:1021200090E0FC01E658FB4F76A687A62AE220AB9A
:10213000D70113962C91139721AB14962C9122ABB7
:102140006C01B6E0CB0ED11C87E283AB97012A5F0E
:102150003F4F5E01E1ECAE0EB11CD501AD014A1955
:102160005B09F90181919F01882311F08D93F6CFCE
:10217000FA01EA0DFB1D1082C5010E94991720E0AB
:1021800030E040E752E40E940D1C20E030E048ECD3
:1021900052E40E948C1D20E030E44CE156E40E94A1
:1021A0008C1D850124E046E00E947917D5018D91B0
:1021B0005D01882341F0FFEFCF1ADF0AF601E658F0
:1021C000FB4F85A7F3CFD601A658BB4F82E29E9660
:1021D0008C939E97F70101900020E9F73297808158
:1021E0009F968C939F97D0961C9281E080937F045A
:1021F00081E090E0C051DF4F0FB6F894DEBF0FBE14
:10220000CDBFDF91CF911F910F91FF90EF90DF90A5
:10221000CF90BF90AF909F908F907F906F905F9086
:102220004F903F902F90089540E061E088E495E062
:102230000E9427098BE39FE10197F1F70895CF935F
:10224000DF93CDB7DEB728970FB6F894DEBF0FBE89
:10225000CDBF28E0E9E1F1E0DE01119601900D9299
:102260002A95E1F720915005261710F46FEF620FC1
:10227000FE013196E60FF11DE60FF11D9081682FEA
:10228000690F606840E088E495E028960FB6F894FE
:10229000DEBF0FBECDBFDF91CF910C942709E09137
:1022A0004805F09149050190F081E02D682F88E400
:1022B00095E009948F929F92AF92BF920F931F93D4
:1022C000CF93DF93CDB7DEB7A1970FB6F894DEBFFB
:1022D0000FBECDBF19A2423008F44AE08E010F5D57
:1022E0001F4F842E912CA12CB12CA50194010E948A
:1022F000371EE62FB901CA0101501109EA3014F462
:10230000E05D01C0E95CD801EC93232B242B252B45
:1023100061F7B80188E495E00E943A08A1960FB6EB
:10232000F894DEBF0FBECDBFDF91CF911F910F910B
:10233000BF90AF909F908F9008954F925F926F9251
:102340007F928F929F92AF92BF92CF92DF92EF9245
:10235000FF926B017C01B42E9B01AC010E94321EE6
:10236000882319F06BE672E027C026013701E89454
:1023700077F82FEF3FEF4FE75FE7C301B2010E940D
:10238000321E81110DC02FEF3FEF4FE75FE7C30112
:10239000B2010E94A71B18161CF46FE672E00CC075
:1023A0002FEF3FEF4FE75FE4C701B6010E942D1EFC
:1023B000181694F463E772E088E495E0FF90EF90DC
:1023C000DF90CF90BF90AF909F908F907F906F9055
:1023D0005F904F900C943A082FEF3FEF4FE75FEC80
:1023E000C701B6010E94A71B87FDE4CF20E030E0C3
:1023F000A901C701B6010E94A71B87FF09C08DE292
:102400000E944F114C01F7FAF094F7F8F09402C0D3
:10241000812C912CA12C60E070E080E09FE3AB1454
:1024200040F420E030E040E251E40E948C1DA3948F
:10243000F6CF9B01AC01C701B6010E94201D2B0104
:102440003C010E94FE1D6B017C010E94AC1B9B01A4
:10245000AC01C301B2010E941F1D2B013C014AE0E7
:10246000C701B6010E945A117C01E80CF91CBB207F
:1024700029F08EE20E944F11E80EF91EDB2CDD20C0
:1024800021F120E030E040E251E4C301B2010E94BA
:102490000D1C2B013C010E94FE1D4B01A12CB12CF7
:1024A0004AE0C501B4010E945A11E80EF91EC501A7
:1024B000B4010E94AC1B9B01AC01C301B2010E949C
:1024C0001F1D2B013C01DA94DACFC701FF90EF907A
:1024D000DF90CF90BF90AF909F908F907F906F9044
:1024E0005F904F900895FC0180917403811103C0A7
:1024F0008FEF9FEF08959FB7F89482E08093E900F3
:102500002091F20030E01216130614F421E030E0BE
:102510002115310559F0289884E680937303809142
:10252000F10080838091F200882319F09FBFC901D8
:1025300008958BE68093E800F9CF2FB7F89483E0F5
:102540008093E9009091E800892F807295FF04C084
:102550009091F20080E4891B2FBF08958091790348
:1025600081110DC082E08093750384E0809376032F
:10257000109278031092770381E08093790385E7C6
:1025800093E00895CF93DF93282F30E0F901E851CD
:10259000FD4F8491F901E753FD4FD491F901E655C0
:1025A000FD4FC491CC2391F081110E940B0BEC2FB5
:1025B000F0E0EE0FFF1FE456FD4FA591B491EC91B2
:1025C000ED2381E090E021F480E002C080E090E023
:1025D000DF91CF910895FB01DA0190812AEF290F55
:1025E000233088F1911105C09C9189132BC081E0A3
:1025F00027C0913031F411969C91891323C082E059
:102600001FC0923031F412969C9189131BC083E055
:1026100017C0933031F413969C91891313C084E052
:102620000FC0943031F414969C9189130BC085E04F
:1026300007C0953039F415969C91891303C086E044
:10264000808308951082089580917C0490917D0488
:10265000DC01ED91FC910084F185E02D0994089551
:10266000CF93DF931F92CDB7DEB7789484B58260A5
:1026700084BD84B5816084BD85B5826085BD85B526
:10268000816085BD80916E00816080936E001092A4
:10269000810080918100826080938100809181001F
:1026A00081608093810080918000816080938000B0
:1026B000809191008260809391008091910081606F
:1026C0008093910080919000816080939000809130
:1026D000C10084608093C1008091C10082608093BA
:1026E000C1008091C10081608093C1008091C300CE
:1026F00081608093C3008091C00082608093C0009D
:102700008091C20081608093C20080917A008460D1
:1027100080937A0080917A00826080937A00809121
:102720007A00816080937A0080917A00806880933B
:102730007A001092740310922C0310922B03809154
:10274000D70081608093D70080EA8093D80089B554
:10275000806189BD89B5826089BD09B400FEFDCF65
:1027600061E070E080E090E00E94780B8091D800FA
:102770008F7C80618093D8008091E000807F80937F
:10278000E0008091E1008E7E8093E1008DE08093F7
:10279000E200559A209A10926903109268038FEF15
:1027A0009FEF90938E0380938D036FED71E081E82E
:1027B00093E00E944F08E091ED03F091EE0382E078
:1027C0008083E091E903F091EA031082E091EB034A
:1027D000F091EC0380E180831092F503E091F10326
:1027E000F091F20386E08083E091EF03F091F00333
:1027F000808180618083E091EF03F091F00380811C
:1028000088608083E091EF03F091F003808180681D
:102810008083E091EF03F091F00380818F7D8083CE
:102820001092DC041092E70461E08091DD040E94C4
:102830007D0A61E08091DD040E94480B62E0809196
:10284000DE040E947D0A62E08091DF040E947D0A1E
:1028500062E08091E0040E947D0A62E08091E104E0
:102860000E947D0A109237031092360310923503AE
:10287000109234031092330381E08093320310925C
:10288000310361E082E00E94480B61E083E00E9436
:10289000480B8091B9008E7F8093B9008091B90078
:1028A0008D7F8093B90088E48093B80085E480939D
:1028B000BC0087EC93E09093300380932F0383ED6B
:1028C00093E090932E0380932D0310924D058091F9
:1028D0005205823018F098E090934D058093500592
:1028E00062E370E080E090E00E94780B6091530515
:1028F00088E495E00E94A90868EE73E080E090E02B
:102900000E94780B60E388E495E00E940E090BE4D6
:1029100016E4C8010197F1F760E388E495E00E94AE
:102920000E09C8010197F1F760E388E495E00E9481
:102930000E0983E592E00197F1F760E288E495E003
:102940000E940E0960914D05606240E088E495E0C8
:102950000E94270984E080934E0540E06CE088E403
:1029600095E00E9427090E94141182E080934F0590
:1029700040E066E088E495E00E94270940E062E0DC
:1029800088E495E00E9427098BE39FE10197F1F726
:1029900088E08093530560E088E495E00E94A908F0
:1029A00060E080E00E941F1160EF71E088E495E034
:1029B0000E944F0861E080E00E941F116FEF71E0FC
:1029C00088E495E00E944F0868EB7BE080E090E0AF
:1029D0000E94780BBB24BA9423E0422E512C01E0D4
:1029E00010E032E0A32E43E0942E0E942413892BA2
:1029F00009F4F2C10E94FC0B20917F04223009F4FB
:102A000090C1233009F496C1213009F0E5C1B0929C
:102A1000E5048091DC048130B9F148F0823009F09E
:102A20008AC08DEDE82E84E0F82E812C7BC060E01A
:102A30008091DD0429830E94480B8091DE040E946E
:102A4000C2122981892B11F42093E5048091DF04BF
:102A50000E94C212892B11F41092E5048091E004C7
:102A60000E94C212892B11F49092E5048091E10436
:102A70000E94C212892B11F4A092E50461E08091BA
:102A8000DD040E94480B57C09DEDE92E94E0F92E1D
:102A9000812C670160E0F70180810E94480B612C66
:102AA000712CF301E652FB4F87810E94C212892BE1
:102AB00021F4882D860D8093E504FFEF6F1A7F0ABD
:102AC00083E06816710469F7EFEFEE1AFE0A61E021
:102AD000F60180810E94480BF3E08F0E8CE0881293
:102AE000D8CF29C0F301E652FB4F87810E94C21262
:102AF000892B21F4882D860D8093E504FFEF6F1A52
:102B00007F0A84E06816710469F7EFEFEE1AFE0A97
:102B100061E0F60180810E94480BF4E08F0E80E1B5
:102B2000881649F0670160E0F70180810E94480B38
:102B3000612C712CD7CF9091E5049F3F29F021E0C3
:102B40008091E604981301C020E0E091E70480E161
:102B5000E89FF0011124E652FB4FE90FF11D868535
:102B60008093DA0436AD3093DB049093E60422239D
:102B7000E9F0813029F4109269031092680316C0BD
:102B8000823029F410936903009368030FC08330E7
:102B900039F482E090E0909369038093680306C063
:102BA000843021F450926903409268038091680355
:102BB00090916903009709F50E94141160E080E08C
:102BC0000E941F1160919004709191048091920471
:102BD0009091930446E050E00E949D1161E080E0F6
:102BE0000E941F1160919404709195048091960445
:102BF0009091970446E050E0EDC08130910599F541
:102C00000E94141148E150E068EB74E080E593E025
:102C10000E949C1F48E150E068EC74E088E393E078
:102C20000E949C1F60E080E00E941F1160E172E042
:102C300088E495E00E944F0868E373E088E495E03B
:102C40000E944F0861E080E00E941F1167E172E07E
:102C500088E495E00E944F0860E573E088E495E021
:102C60000E944F08B9C08230910589F50E94141165
:102C700060E080E00E941F116EE172E088E495E060
:102C80000E944F0826E53EE04DEE5FE36091880428
:102C90007091890480918A0490918B040E940D1C8C
:102CA00042E050E00E949D1161E080E00E941F110F
:102CB00066E272E088E495E00E944F0860918C041F
:102CC00070918D0480918E0490918F0481C0039740
:102CD00009F082C00E94141160E080E00E941F1180
:102CE0006EE272E088E495E00E944F08C090800494
:102CF0000C2C000CDD08EE08FF08F7FE0CC08DE27E
:102D00000E944F1166277727CB016C197D098E0928
:102D10009F094AE003C04AE0C701B6010E945A1168
:102D200015C00E94141160E080E00E941F116CE346
:102D300072E008C00E94141160E080E00E941F1140
:102D40006BE472E088E495E00E944F0861E080E067
:102D50000E941F1164E372E088E495E00E944F082E
:102D600082E10E94B90ABC01990F880B990B0E945D
:102D7000AE1B2DEC3CEC4CE453E40E948C1D2DEC7E
:102D80003CEC40EA5FE30E940D1C42E050E00E94F0
:102D90009D1161E088E00E941F1168E372E088E401
:102DA00095E00E944F0883E10E94B90ABC01990F87
:102DB000880B990B0E94AE1B2DEC3CEC4CE453E4C9
:102DC0000E948C1D2DEC3CEC40EA5FE30E940D1C40
:102DD00042E050E00E949D110E94500306CECF9326
:102DE000DF93CDEDD3E01B821A8288EE93E0A0E062
:102DF000B0E08C839D83AE83BF8325E831E03983C7
:102E000028832DEC30E03D872C872CEC30E03F8789
:102E10002E8728EC30E0398B288B29EC30E03B8B77
:102E20002A8B2AEC30E03D8B2C8B2EEC30E03F8B54
:102E30002E8B198E1A8E1B8E1C8EE1E8F3E0138206
:102E4000128284839583A683B78327E931E0318397
:102E500020832FEF3FEF35872487E1EDF3E01382E6
:102E6000128284839583A683B78389EA91E0918354
:102E70008083E8E4F5E0138212828BEC91E0918389
:102E8000808387E2848380E1818782E08287138662
:102E90008AED94E0FC0110821182248730E3E1E2A4
:102EA000F1E0A8EEB4E001900D923A95E1F730E33D
:102EB000E1E5F1E0A8E1B5E001900D923A95E1F786
:102EC0003CE0FC0133833BE034833AE0358339E076
:102ED000368338E03783208721872287EAE7F4E0CA
:102EE000D383C28383EC91E091838083DF91CF9180
:102EF0000895EF920F931F93CF93DF93E80147FD5F
:102F000002C034E001C034E1E42F440FFF0BF7FFAF
:102F100003C0F195E195F109E32E022F2E2FAE01AA
:102F20000E94C317CE01DF91CF911F910F91EF90B7
:102F30000895662777270C945119FC018827992753
:102F4000E89421912032E9F3293010F02E30C8F3B3
:102F50002B3241F02D3239F4689404C00E94BB1723
:102F6000820F911D219120532A30C0F31EF49095B9
:102F700081959F4F08957AE0979F902D879F802D90
:102F8000910D112408954F925F926F927F929F92BC
:102F9000AF92BF92CF92DF92EF92FF920F931F9367
:102FA000CF93DF93CDB7DEB729970FB6F894DEBF86
:102FB0000FBECDBF6A01122FB02E2BE3201720F0D9
:102FC000FF24F394F00E02C0BCE3FB2E0F2D27E08C
:102FD000AE014F5F5F4F0E94AE1AAC018981982FFE
:102FE0009970913031F0E1FC06C0E0FE06C090E23D
:102FF00005C09DE203C09BE201C090E0EE2DE071B0
:1030000083FF3CC0911102C083E001C084E08117BE
:1030100018F4212F281B01C020E0E1110BC0F6019C
:10302000822F30E2882319F031938150FBCFC20EFA
:10303000D11C20E0992329F0D6019C93F60131960A
:103040006F01C6010396E2FE0AC03EE4D6013C933E
:1030500041E411964C93119712963C9306C03EE6BC
:10306000F601308341E641833283FC01322F40E296
:10307000332309F442C041933150FACF82FF44C058
:10308000911102C083E001C084E0811718F4212F60
:10309000281B01C020E0E1110BC0F601822F30E2B5
:1030A000882319F031938150FBCFC20ED11C20E050
:1030B000992329F0D6019C93F60131966F01C60140
:1030C0000396E2FE0BC039E4D6013C933EE4119630
:1030D0003C93119736E412963C9307C039E6F6010B
:1030E00030833EE6318336E63283FC01322F40E204
:1030F000332319F041933150FBCFFC01E20FF11D56
:1031000010828EEF9FEFB7C0F1E0911101C0F0E0A7
:103110006F2F70E01416150624F49A012F5F3F4FAD
:1031200002C021E030E0260F371FBB2029F06B2DB5
:1031300070E06F5F7F4F02C060E070E0260F371FC6
:10314000612F70E0261737071CF4121B212F01C0D6
:1031500020E03E2D387159F4D601322F60E233233E
:1031600019F06D933150FBCFC20ED11C20E0FF232C
:1031700031F0D6019C93B6016F5F7F4F6B01E11177
:103180000BC0F601922F30E3992319F0319391503F
:10319000FBCFC20ED11C20E09F2D940F3A81782FD7
:1031A0007071A72E84FF03C0313309F491501916B2
:1031B00024F4993018F098E001C091E0E42F852FB5
:1031C00057FF02C0E0E080E06E2F782FE0E0F0E0F3
:1031D000AEE29A2E3A01691A71082A01461A570A74
:1031E0000B2D10E01195019511096F3F8FEF7807B6
:1031F00029F4D6019C92C60101966C014617570727
:1032000084F0661677066CF47F01E40CF51CA1E0EF
:10321000B0E0AC0FBD1FEA0EFB1ED7011196BC90AB
:1032200002C090E3B92E615071093196C601019632
:103230007C016017710724F0D601BC926C01D5CFD8
:103240006417750741F4363320F4353321F4A110A7
:1032500002C081E3B82EF601B082F701822F90E21E
:10326000882319F091938150FBCFF701E20FF11DF4
:10327000108280E090E029960FB6F894DEBF0FBE72
:10328000CDBFDF91CF911F910F91FF90EF90DF9015
:10329000CF90BF90AF909F907F906F905F904F9036
:1032A0000895A0E0B0E0E7E5F9E10C94DD1CEC0145
:1032B0007B016115710519F0DB018D939C938E01E3
:1032C0000F5F1F4F7880872D90E00E94861B892B0F
:1032D00011F0E801F4CFBDE27B1205C00F5F1F4F74
:1032E0007980C1E008C0EBE27E1204C08E010E5F5F
:1032F0001F4F7980C0E06801F1E0CF1AD10843E0A8
:1033000050E062ED70E0C6010E948F1B892BF1F442
:10331000680122E0C20ED11C45E050E06DEC70E087
:10332000C6010E948F1B892B21F4680187E0C80E1B
:10333000D11CE114F10419F0D701CD92DC92C11136
:10334000FFC060E070E080E89FE703C143E050E029
:103350006AEC70E0C6010E948F1B892B51F4E114C6
:10336000F10409F4F2C00E5F1F4FF70111830083CF
:10337000ECC0680160E070E0CB0100E010E0F60115
:10338000D0EDD70DDA3058F52C2F2260622E2C2F7D
:103390002870C2FF05C0211128C00F5F1F4F25C034
:1033A000222311F001501109A5E0B0E09B01AC010E
:1033B0000E94CE1C4B015C01880C991CAA1CBB1CF2
:1033C000C501B4016D0F711D811D911D6839A9E9F9
:1033D0007A078A07A9E19A0740F0C66005C0DE3F78
:1033E00051F4C3FD44C0C8606C2EBFEFCB1ADB0A9A
:1033F0007080C62DC4CF2D2F2F7D2531C1F5408182
:103400004D3211F4C06106C04B3221F0319621E0FB
:1034100030E006C03296D60111964C9122E030E0A1
:10342000A0EDA40FAA3018F0E21BF30B20C040E07F
:1034300050E04038BCE05B075CF49A01220F331F78
:10344000220F331F420F531F440F551F4A0F511DA8
:103450003196DF0111972C91A0EDA20FAA3048F30D
:10346000C4FF03C0519541955109040F151FC1FFB9
:1034700007C0E114F10421F03197D701ED93FC93DB
:103480000E94AC1BC370C33019F06B017C0106C0F5
:103490006B017C01F7FAF094F7F8F09420E030E04B
:1034A000A901C701B6010E94A71B882309F445C0E2
:1034B00017FF06C0119501951109C9EED0E002C0B1
:1034C000C1E0D1E05E01B8E1AB1AB1084601BE2D02
:1034D000AF2D90E2E92EF12C0E151F0584F0FE01B0
:1034E0002591359145915491B4018B2F9A2F0E94CB
:1034F0000D1C4B01B82FA92F0E191F09EDCF2497D2
:10350000F594E794CA15DB0539F76401EB2EFA2E22
:103510008E2D880F8F2D881F8F3F49F020E030E0DF
:10352000A901C701B6010E94A71B811106C082E252
:1035300090E09093550580935405C701B60109C0EA
:1035400060E070E080E89FEF04C060E070E080EC35
:103550009FE7CDB7DEB7EEE00C94F91C283008F0F9
:1035600027E03327DA01990F311D87FD916000961E
:103570006105710539F432602E5F3D9330E32A9581
:10358000E1F708959F3F30F080387105610509F03B
:103590003C5F3C5F3D93913008F08068911DDF9364
:1035A000CF931F930F93FF92EF92192F987F9695C9
:1035B000E92F96959695E90FFF27E15AFE4F992737
:1035C0003327EE24FF24A701E70105900894079410
:1035D00028F4360FE71EF81E491F511D660F771F8E
:1035E000881F991F0694A1F70590079428F4E70E09
:1035F000F81E491F561FC11D770F881F991F661F90
:103600000694A1F70590079428F4F80E491F561F59
:10361000C71FD11D880F991F661F771F0694A1F73A
:103620000590079420F4490F561FC71FD81F990F04
:10363000661F771F881F0694A9F78491109517704D
:1036400041F0D695C79557954795F794E7941A9505
:10365000C1F7E5E0F1E06894159015913591659119
:10366000959105907FE27395E118F10A430B560B93
:10367000C90BD009C0F7E10CF11E431F561FC91F2B
:10368000D01D7EF4703311F48A95E6CFE894015092
:1036900030F0080F0AF40027021708F4202F2395B2
:1036A000022F7A3328F079E37D932A95E9F710C049
:1036B0007D932A9589F60694979567953795179582
:1036C0001794E118F10A430B560BC90BD00998F077
:1036D00023957E9173957A3308F070E37C932013E1
:1036E000B8F77E9170617D9330F0839571E37D939F
:1036F00070E32A95E1F71124EF90FF900F911F914D
:10370000CF91DF91992787FD9095089591110C94A1
:103710007A1C803219F089508550C8F70895FB0152
:10372000DC014150504088F08D9181341CF08B3584
:103730000CF4805E659161341CF06B350CF4605EB6
:10374000861B611171F3990B0895881BFCCF0E94B1
:10375000E91B08F481E00895E89409C097FB3EF462
:1037600090958095709561957F4F8F4F9F4F9923CE
:10377000A9F0F92F96E9BB279395F695879577954C
:103780006795B795F111F8CFFAF4BB0F11F460FF0C
:103790001BC06F5F7F4F8F4F9F4F16C0882311F064
:1037A00096E911C0772321F09EE8872F762F05C078
:1037B000662371F096E8862F70E060E02AF09A9513
:1037C000660F771F881FDAF7880F9695879597F908
:1037D0000895990F0008550FAA0BE0E8FEEF1616A2
:1037E0001706E807F907C0F012161306E407F507F5
:1037F00098F0621B730B840B950B39F40A2661F069
:10380000232B242B252B21F408950A2609F4A1400B
:10381000A6958FEF811D811D08950E94201C0C9498
:10382000941C0E94861C38F00E948D1C20F0952369
:1038300011F00C947D1C0C94831C11240C94C81C56
:103840000E94A51C70F3959FC1F3950F50E0551F82
:10385000629FF001729FBB27F00DB11D639FAA27E5
:10386000F00DB11DAA1F649F6627B00DA11D661F34
:10387000829F2227B00DA11D621F739FB00DA11D55
:10388000621F839FA00D611D221F749F3327A00D0F
:10389000611D231F849F600D211D822F762F6A2FAB
:1038A00011249F5750409AF0F1F088234AF0EE0F10
:1038B000FF1FBB1F661F771F881F91505040A9F73D
:1038C0009E3F510580F00C947D1C0C94C81C5F3FFA
:1038D000E4F3983ED4F3869577956795B795F79579
:1038E000E7959F5FC1F7FE2B880F911D96958795F1
:1038F00097F9089599278827089597F99F6780E891
:1039000070E060E008959FEF80EC089500240A9431
:103910001616170618060906089500240A941216AA
:103920001306140605060895092E0394000C11F4DD
:10393000882352F0BB0F40F4BF2B11F460FF04C08A
:103940006F5F7F4F8F4F9F4F089557FD9058440FE3
:10395000551F59F05F3F71F04795880F97FB991FEE
:1039600061F09F3F79F087950895121613061406AB
:10397000551FF2CF4695F1DF08C016161706180638
:10398000991FF1CF86957105610508940895E89413
:10399000BB2766277727CB0197F908950E94101D52
:1039A000A59F900DB49F900DA49F800D911D112493
:1039B00008952F923F924F925F926F927F928F92D3
:1039C0009F92AF92BF92CF92DF92EF92FF920F93AE
:1039D0001F93CF93DF93CDB7DEB7CA1BDB0B0FB6B8
:1039E000F894DEBF0FBECDBF09942A883988488875
:1039F0005F846E847D848C849B84AA84B984C8840B
:103A0000DF80EE80FD800C811B81AA81B981CE0F01
:103A1000D11D0FB6F894DEBF0FBECDBFED010895E6
:103A2000A29FB001B39FC001A39F700D811D1124FF
:103A3000911DB29F700D811D1124911D0895505844
:103A4000BB27AA270E94371D0C94941C0E94861C39
:103A500038F00E948D1C20F039F49F3F19F426F4B1
:103A60000C94831C0EF4E095E7FB0C947D1CE92F6D
:103A70000E94A51C58F3BA176207730784079507BD
:103A800020F079F4A6F50C94C71C0EF4E0950B2EEB
:103A9000BA2FA02D0B01B90190010C01CA01A001A0
:103AA0001124FF27591B99F0593F50F4503E68F1FB
:103AB0001A16F040A22F232F342F4427585FF3CF3C
:103AC000469537952795A795F0405395C9F77EF40D
:103AD0001F16BA0B620B730B840BBAF09150A1F056
:103AE000FF0FBB1F661F771F881FC2F70EC0BA0FDC
:103AF000621F731F841F48F4879577956795B79564
:103B0000F7959E3F08F0B0CF9395880F08F099275E
:103B1000EE0F9795879508950E94A01D0C94941C14
:103B20000E948D1C58F00E94861C40F029F45F3FD3
:103B300029F00C947D1C51110C94C81C0C94831C0E
:103B40000E94A51C68F39923B1F3552391F3951BAB
:103B5000550BBB27AA2762177307840738F09F5FAE
:103B60005F4F220F331F441FAA1FA9F335D00E2E1B
:103B70003AF0E0E832D091505040E695001CCAF788
:103B80002BD0FE2F29D0660F771F881FBB1F26174B
:103B900037074807AB07B0E809F0BB0B802DBF0122
:103BA000FF2793585F4F3AF09E3F510578F00C94F1
:103BB0007D1C0C94C81C5F3FE4F3983ED4F38695BB
:103BC00077956795B795F7959F5FC9F7880F911D12
:103BD0009695879597F90895E1E0660F771F881FFE
:103BE000BB1F621773078407BA0720F0621B730BB1
:103BF000840BBA0BEE1F88F7E09508950E94AD1C68
:103C000088F09F5798F0B92F9927B751B0F0E1F09D
:103C1000660F771F881F991F1AF0BA95C9F714C04D
:103C2000B13091F00E94C71CB1E008950C94C71CFC
:103C3000672F782F8827B85F39F0B93FCCF3869586
:103C400077956795B395D9F73EF4909580957095E3
:103C500061957F4F8F4F9F4F08950E94E91B08F495
:103C60008FEF08950E94E91B880B990B0895A1E23C
:103C70001A2EAA1BBB1BFD010DC0AA1FBB1FEE1FE6
:103C8000FF1FA217B307E407F50720F0A21BB30B31
:103C9000E40BF50B661F771F881F991F1A9469F7AD
:103CA00060957095809590959B01AC01BD01CF0109
:103CB0000895EE0FFF1F0590F491E02D0994CF9326
:103CC000DF938230910510F482E090E0E091580596
:103CD000F091590520E030E0C0E0D0E0309711F1DC
:103CE0004081518148175907C0F04817590761F4BE
:103CF00082819381209719F09B838A832BC09093B4
:103D000059058093580526C02115310519F0421731
:103D1000530718F49A01BE01DF01EF010280F3811D
:103D2000E02DDCCF2115310509F1281B390B24309A
:103D3000310590F412968D919C9113976115710540
:103D400021F0FB019383828304C0909359058093F3
:103D50005805FD01329644C0FD01E20FF31F819327
:103D60009193225031092D933C933AC020915605EE
:103D700030915705232B41F420910E0130910F0112
:103D8000309357052093560520910C0130910D0179
:103D90002115310541F42DB73EB7409110015091E6
:103DA0001101241B350BE0915605F0915705E217E0
:103DB000F307A0F42E1B3F0B2817390778F0AC014E
:103DC0004E5F5F4F2417350748F04E0F5F1F50932B
:103DD0005705409356058193919302C0E0E0F0E0CF
:103DE000CF01DF91CF9108950F931F93CF93DF936E
:103DF000009709F48CC0FC01329713821282009163
:103E00005805109159050115110581F42081318162
:103E1000820F931F209156053091570528173907B7
:103E200079F5F0935705E093560571C0D80140E04D
:103E300050E0AE17BF0750F412962D913C911397A6
:103E4000AD012115310509F1D901F3CF9D01DA0149
:103E50003383228360817181860F971F82179307B6
:103E600069F4EC0128813981260F371F2E5F3F4FFF
:103E7000318320838A819B8193838283452B29F41C
:103E8000F0935905E093580542C01396FC93EE93C6
:103E90001297ED01499159919E01240F351FE217A8
:103EA000F30771F480819181840F951F029611961A
:103EB0009C938E938281938113969C938E931297F9
:103EC000E0E0F0E0D80112968D919C911397009755
:103ED00019F0F8018C01F6CF8D919C9198012E5F1D
:103EE0003F4F820F931F2091560530915705281799
:103EF000390769F4309729F4109259051092580542
:103F000002C0138212821093570500935605DF9169
:103F1000CF911F910F91089581E090E0F8940C9457
:103F2000AB1FFB01DC010D900020E9F71197019018
:103F30000D920020E1F70895FB01DC014150504053
:103F400048F001900D920020C9F701C01D92415028
:103F50005040E0F7089511E0C5E8D1E004C0FE014B
:103F60000E94591E2196C638D107C9F7F894FFCF91
:103F7000FFFFFFFF00E100000000000000005A0505
:103F8000800000C180810000000000400014005447
:103F90000001020304000000000000000000000017
:103FA000000102030405060708090E000F000000C7
:103FB000000102030A0405060B0708090C0E000F96
:103FC0000D3132333430303030303030303030300A
:103FD000303132333435363738392A3023303030C7
:103FE000303132334134353642373839432A302381
:103FF0004400000000E2024F027A022E03AB028965
:10400000029D02000000005A03BE04430570037BBA
:10401000036B05470500000000590429048904FDCD
:104020000321040D04FE0300000000090B090B002E
:104030000000007C0A89050000000048094F028941
:1040400004880400000000090B4F0289048804530F
:10405000657269616C20696E6974204F4B0D0A00AE
:1040600048656C6C6F2C204B6972696C6C21004147
:104070006D7065726B614750534E617669612100C6
:10408000446174653A200054696D653A20005370AC
:104090006565643A2000416C7469743A200053618C
:1040A000743A200042313A0042323A0047505320DD
:1040B0006572726F722064617461004E6F436F6E3F
:1040C0006E656374546F5361742121210024474E3F
:1040D0004747410024474E524D43006E616E0069D0
:0840E0006E66006F76660000B9
:00000001FF
